{"project/contracts/Bridge.sol":{"Bridge":{"abi":[{"inputs":[{"internalType":"address","name":"_token","type":"address"},{"internalType":"address","name":"_relayer","type":"address"},{"internalType":"uint256","name":"_destChainId","type":"uint256"},{"internalType":"enum Bridge.Mode","name":"_mode","type":"uint8"}],"stateMutability":"nonpayable","type":"constructor"},{"inputs":[],"name":"ECDSAInvalidSignature","type":"error"},{"inputs":[{"internalType":"uint256","name":"length","type":"uint256"}],"name":"ECDSAInvalidSignatureLength","type":"error"},{"inputs":[{"internalType":"bytes32","name":"s","type":"bytes32"}],"name":"ECDSAInvalidSignatureS","type":"error"},{"anonymous":false,"inputs":[{"indexed":true,"internalType":"address","name":"sender","type":"address"},{"indexed":true,"internalType":"address","name":"recipient","type":"address"},{"indexed":false,"internalType":"uint256","name":"amount","type":"uint256"},{"indexed":false,"internalType":"uint256","name":"nonce","type":"uint256"}],"name":"BridgeInitiated","type":"event"},{"anonymous":false,"inputs":[{"indexed":true,"internalType":"address","name":"recipient","type":"address"},{"indexed":false,"internalType":"uint256","name":"amount","type":"uint256"},{"indexed":false,"internalType":"uint256","name":"nonce","type":"uint256"}],"name":"BridgeReleased","type":"event"},{"inputs":[{"internalType":"uint256","name":"amount","type":"uint256"},{"internalType":"address","name":"recipient","type":"address"}],"name":"bridge","outputs":[],"stateMutability":"nonpayable","type":"function"},{"inputs":[],"name":"destChainId","outputs":[{"internalType":"uint256","name":"","type":"uint256"}],"stateMutability":"view","type":"function"},{"inputs":[],"name":"mode","outputs":[{"internalType":"enum Bridge.Mode","name":"","type":"uint8"}],"stateMutability":"view","type":"function"},{"inputs":[],"name":"outboundNonce","outputs":[{"internalType":"uint256","name":"","type":"uint256"}],"stateMutability":"view","type":"function"},{"inputs":[{"internalType":"uint256","name":"","type":"uint256"}],"name":"processedNonces","outputs":[{"internalType":"bool","name":"","type":"bool"}],"stateMutability":"view","type":"function"},{"inputs":[],"name":"relayer","outputs":[{"internalType":"address","name":"","type":"address"}],"stateMutability":"view","type":"function"},{"inputs":[{"internalType":"address","name":"recipient","type":"address"},{"internalType":"uint256","name":"amount","type":"uint256"},{"internalType":"uint256","name":"nonce","type":"uint256"},{"internalType":"bytes","name":"sig","type":"bytes"}],"name":"release","outputs":[],"stateMutability":"nonpayable","type":"function"},{"inputs":[],"name":"token","outputs":[{"internalType":"contract BridgeToken","name":"","type":"address"}],"stateMutability":"view","type":"function"}],"evm":{"bytecode":{"linkReferences":{},"object":"610100604052348015610010575f5ffd5b506040516117fa3803806117fa8339818101604052810190610032919061018b565b8373ffffffffffffffffffffffffffffffffffffffff1660808173ffffffffffffffffffffffffffffffffffffffff16815250508273ffffffffffffffffffffffffffffffffffffffff1660a08173ffffffffffffffffffffffffffffffffffffffff16815250508160c081815250508060018111156100b5576100b46101ef565b5b60e08160018111156100ca576100c96101ef565b5b815250505050505061021c565b5f5ffd5b5f73ffffffffffffffffffffffffffffffffffffffff82169050919050565b5f610104826100db565b9050919050565b610114816100fa565b811461011e575f5ffd5b50565b5f8151905061012f8161010b565b92915050565b5f819050919050565b61014781610135565b8114610151575f5ffd5b50565b5f815190506101628161013e565b92915050565b60028110610174575f5ffd5b50565b5f8151905061018581610168565b92915050565b5f5f5f5f608085870312156101a3576101a26100d7565b5b5f6101b087828801610121565b94505060206101c187828801610121565b93505060406101d287828801610154565b92505060606101e387828801610177565b91505092959194509250565b7f4e487b71000000000000000000000000000000000000000000000000000000005f52602160045260245ffd5b60805160a05160c05160e0516115736102875f395f818161018a015281816102ca015261078801525f81816104d8015261060b01525f81816101ae01526106bf01525f8181610302015281816103e3015281816107c00152818161089f015261098201526115735ff3fe608060405234801561000f575f5ffd5b5060043610610086575f3560e01c8063c4af1c0b11610059578063c4af1c0b14610112578063faa916d314610130578063fc0c546a1461014c578063fd10ebe51461016a57610086565b8063295a52121461008a5780638406c079146100a857806391dae519146100c65780639394d2e8146100f6575b5f5ffd5b610092610188565b60405161009f9190610d17565b60405180910390f35b6100b06101ac565b6040516100bd9190610d6f565b60405180910390f35b6100e060048036038101906100db9190610dc3565b6101d0565b6040516100ed9190610e08565b60405180910390f35b610110600480360381019061010b9190610e4b565b6101ed565b005b61011a6104d6565b6040516101279190610e98565b60405180910390f35b61014a60048036038101906101459190610f12565b6104fa565b005b610154610980565b6040516101619190610ff1565b60405180910390f35b6101726109a4565b60405161017f9190610e98565b60405180910390f35b7f000000000000000000000000000000000000000000000000000000000000000081565b7f000000000000000000000000000000000000000000000000000000000000000081565b6001602052805f5260405f205f915054906101000a900460ff1681565b5f821161022f576040517f08c379a000000000000000000000000000000000000000000000000000000000815260040161022690611064565b60405180910390fd5b5f73ffffffffffffffffffffffffffffffffffffffff168173ffffffffffffffffffffffffffffffffffffffff160361029d576040517f08c379a0000000000000000000000000000000000000000000000000000000008152600401610294906110cc565b60405180910390fd5b5f5f5f8154809291906102af90611117565b9190505590505f60018111156102c8576102c7610ca4565b5b7f000000000000000000000000000000000000000000000000000000000000000060018111156102fb576102fa610ca4565b5b036103e1577f000000000000000000000000000000000000000000000000000000000000000073ffffffffffffffffffffffffffffffffffffffff166323b872dd3330866040518463ffffffff1660e01b815260040161035d9392919061115e565b6020604051808303815f875af1158015610379573d5f5f3e3d5ffd5b505050506040513d601f19601f8201168201806040525081019061039d91906111bd565b6103dc576040517f08c379a00000000000000000000000000000000000000000000000000000000081526004016103d390611232565b60405180910390fd5b61046a565b7f000000000000000000000000000000000000000000000000000000000000000073ffffffffffffffffffffffffffffffffffffffff16639dc29fac33856040518363ffffffff1660e01b815260040161043c929190611250565b5f604051808303815f87803b158015610453575f5ffd5b505af1158015610465573d5f5f3e3d5ffd5b505050505b8173ffffffffffffffffffffffffffffffffffffffff163373ffffffffffffffffffffffffffffffffffffffff167f6a21742b1943e14eb12e527b823f24fb8041781335a6397b6c22a683722e4c5e85846040516104c9929190611277565b60405180910390a3505050565b7f000000000000000000000000000000000000000000000000000000000000000081565b60015f8481526020019081526020015f205f9054906101000a900460ff1615610558576040517f08c379a000000000000000000000000000000000000000000000000000000000815260040161054f906112e8565b60405180910390fd5b5f73ffffffffffffffffffffffffffffffffffffffff168573ffffffffffffffffffffffffffffffffffffffff16036105c6576040517f08c379a00000000000000000000000000000000000000000000000000000000081526004016105bd906110cc565b60405180910390fd5b5f8411610608576040517f08c379a00000000000000000000000000000000000000000000000000000000081526004016105ff90611064565b60405180910390fd5b5f7f0000000000000000000000000000000000000000000000000000000000000000868686604051602001610640949392919061136b565b6040516020818303038152906040528051906020012090505f610662826109a9565b90505f6106bb85858080601f0160208091040260200160405190810160405280939291908181526020018383808284375f81840152601f19601f82011690508083019250505050505050836109dc90919063ffffffff16565b90507f000000000000000000000000000000000000000000000000000000000000000073ffffffffffffffffffffffffffffffffffffffff168173ffffffffffffffffffffffffffffffffffffffff161461074b576040517f08c379a000000000000000000000000000000000000000000000000000000000815260040161074290611428565b60405180910390fd5b6001805f8881526020019081526020015f205f6101000a81548160ff0219169083151502179055505f600181111561078657610785610ca4565b5b7f000000000000000000000000000000000000000000000000000000000000000060018111156107b9576107b8610ca4565b5b0361089d577f000000000000000000000000000000000000000000000000000000000000000073ffffffffffffffffffffffffffffffffffffffff1663a9059cbb89896040518363ffffffff1660e01b8152600401610819929190611250565b6020604051808303815f875af1158015610835573d5f5f3e3d5ffd5b505050506040513d601f19601f8201168201806040525081019061085991906111bd565b610898576040517f08c379a000000000000000000000000000000000000000000000000000000000815260040161088f90611490565b60405180910390fd5b610926565b7f000000000000000000000000000000000000000000000000000000000000000073ffffffffffffffffffffffffffffffffffffffff166340c10f1989896040518363ffffffff1660e01b81526004016108f8929190611250565b5f604051808303815f87803b15801561090f575f5ffd5b505af1158015610921573d5f5f3e3d5ffd5b505050505b8773ffffffffffffffffffffffffffffffffffffffff167f81d0b274a0694f8c5fae0a8472ac07928f4b6456b6e26dd3810132a354343840888860405161096e929190611277565b60405180910390a25050505050505050565b7f000000000000000000000000000000000000000000000000000000000000000081565b5f5481565b5f7f19457468657265756d205369676e6564204d6573736167653a0a3332000000005f5281601c52603c5f209050919050565b5f5f5f5f6109ea8686610a06565b9250925092506109fa8282610a5b565b82935050505092915050565b5f5f5f6041845103610a46575f5f5f602087015192506040870151915060608701515f1a9050610a3888828585610bbd565b955095509550505050610a54565b5f600285515f1b9250925092505b9250925092565b5f6003811115610a6e57610a6d610ca4565b5b826003811115610a8157610a80610ca4565b5b0315610bb95760016003811115610a9b57610a9a610ca4565b5b826003811115610aae57610aad610ca4565b5b03610ae5576040517ff645eedf00000000000000000000000000000000000000000000000000000000815260040160405180910390fd5b60026003811115610af957610af8610ca4565b5b826003811115610b0c57610b0b610ca4565b5b03610b5057805f1c6040517ffce698f7000000000000000000000000000000000000000000000000000000008152600401610b479190610e98565b60405180910390fd5b600380811115610b6357610b62610ca4565b5b826003811115610b7657610b75610ca4565b5b03610bb857806040517fd78bce0c000000000000000000000000000000000000000000000000000000008152600401610baf91906114c6565b60405180910390fd5b5b5050565b5f5f5f7f7fffffffffffffffffffffffffffffff5d576e7357a4501ddfe92f46681b20a0845f1c1115610bf9575f600385925092509250610c9a565b5f6001888888886040515f8152602001604052604051610c1c94939291906114fa565b6020604051602081039080840390855afa158015610c3c573d5f5f3e3d5ffd5b5050506020604051035190505f73ffffffffffffffffffffffffffffffffffffffff168173ffffffffffffffffffffffffffffffffffffffff1603610c8d575f60015f5f1b93509350935050610c9a565b805f5f5f1b935093509350505b9450945094915050565b7f4e487b71000000000000000000000000000000000000000000000000000000005f52602160045260245ffd5b60028110610ce257610ce1610ca4565b5b50565b5f819050610cf282610cd1565b919050565b5f610d0182610ce5565b9050919050565b610d1181610cf7565b82525050565b5f602082019050610d2a5f830184610d08565b92915050565b5f73ffffffffffffffffffffffffffffffffffffffff82169050919050565b5f610d5982610d30565b9050919050565b610d6981610d4f565b82525050565b5f602082019050610d825f830184610d60565b92915050565b5f5ffd5b5f5ffd5b5f819050919050565b610da281610d90565b8114610dac575f5ffd5b50565b5f81359050610dbd81610d99565b92915050565b5f60208284031215610dd857610dd7610d88565b5b5f610de584828501610daf565b91505092915050565b5f8115159050919050565b610e0281610dee565b82525050565b5f602082019050610e1b5f830184610df9565b92915050565b610e2a81610d4f565b8114610e34575f5ffd5b50565b5f81359050610e4581610e21565b92915050565b5f5f60408385031215610e6157610e60610d88565b5b5f610e6e85828601610daf565b9250506020610e7f85828601610e37565b9150509250929050565b610e9281610d90565b82525050565b5f602082019050610eab5f830184610e89565b92915050565b5f5ffd5b5f5ffd5b5f5ffd5b5f5f83601f840112610ed257610ed1610eb1565b5b8235905067ffffffffffffffff811115610eef57610eee610eb5565b5b602083019150836001820283011115610f0b57610f0a610eb9565b5b9250929050565b5f5f5f5f5f60808688031215610f2b57610f2a610d88565b5b5f610f3888828901610e37565b9550506020610f4988828901610daf565b9450506040610f5a88828901610daf565b935050606086013567ffffffffffffffff811115610f7b57610f7a610d8c565b5b610f8788828901610ebd565b92509250509295509295909350565b5f819050919050565b5f610fb9610fb4610faf84610d30565b610f96565b610d30565b9050919050565b5f610fca82610f9f565b9050919050565b5f610fdb82610fc0565b9050919050565b610feb81610fd1565b82525050565b5f6020820190506110045f830184610fe2565b92915050565b5f82825260208201905092915050565b7f4272696467653a20616d6f756e74206d757374206265203e20300000000000005f82015250565b5f61104e601a8361100a565b91506110598261101a565b602082019050919050565b5f6020820190508181035f83015261107b81611042565b9050919050565b7f4272696467653a20696e76616c696420726563697069656e74000000000000005f82015250565b5f6110b660198361100a565b91506110c182611082565b602082019050919050565b5f6020820190508181035f8301526110e3816110aa565b9050919050565b7f4e487b71000000000000000000000000000000000000000000000000000000005f52601160045260245ffd5b5f61112182610d90565b91507fffffffffffffffffffffffffffffffffffffffffffffffffffffffffffffffff8203611153576111526110ea565b5b600182019050919050565b5f6060820190506111715f830186610d60565b61117e6020830185610d60565b61118b6040830184610e89565b949350505050565b61119c81610dee565b81146111a6575f5ffd5b50565b5f815190506111b781611193565b92915050565b5f602082840312156111d2576111d1610d88565b5b5f6111df848285016111a9565b91505092915050565b7f4272696467653a207472616e7366657246726f6d206661696c656400000000005f82015250565b5f61121c601b8361100a565b9150611227826111e8565b602082019050919050565b5f6020820190508181035f83015261124981611210565b9050919050565b5f6040820190506112635f830185610d60565b6112706020830184610e89565b9392505050565b5f60408201905061128a5f830185610e89565b6112976020830184610e89565b9392505050565b7f4272696467653a206e6f6e636520616c72656164792070726f636573736564005f82015250565b5f6112d2601f8361100a565b91506112dd8261129e565b602082019050919050565b5f6020820190508181035f8301526112ff816112c6565b9050919050565b5f819050919050565b61132061131b82610d90565b611306565b82525050565b5f8160601b9050919050565b5f61133c82611326565b9050919050565b5f61134d82611332565b9050919050565b61136561136082610d4f565b611343565b82525050565b5f611376828761130f565b6020820191506113868286611354565b601482019150611396828561130f565b6020820191506113a6828461130f565b60208201915081905095945050505050565b7f4272696467653a20696e76616c69642072656c61796572207369676e617475725f8201527f6500000000000000000000000000000000000000000000000000000000000000602082015250565b5f61141260218361100a565b915061141d826113b8565b604082019050919050565b5f6020820190508181035f83015261143f81611406565b9050919050565b7f4272696467653a207472616e73666572206661696c65640000000000000000005f82015250565b5f61147a60178361100a565b915061148582611446565b602082019050919050565b5f6020820190508181035f8301526114a78161146e565b9050919050565b5f819050919050565b6114c0816114ae565b82525050565b5f6020820190506114d95f8301846114b7565b92915050565b5f60ff82169050919050565b6114f4816114df565b82525050565b5f60808201905061150d5f8301876114b7565b61151a60208301866114eb565b61152760408301856114b7565b61153460608301846114b7565b9594505050505056fea26469706673582212208fe9062a830dca01724558ca18f143e110d8bd380ddbae3aec831fa84cde8c7f64736f6c634300081c0033","opcodes":"PUSH2 0x100 PUSH1 0x40 MSTORE CALLVALUE DUP1 ISZERO PUSH2 0x10 JUMPI PUSH0 PUSH0 REVERT JUMPDEST POP PUSH1 0x40 MLOAD PUSH2 0x17FA CODESIZE SUB DUP1 PUSH2 0x17FA DUP4 CODECOPY DUP2 DUP2 ADD PUSH1 0x40 MSTORE DUP2 ADD SWAP1 PUSH2 0x32 SWAP2 SWAP1 PUSH2 0x18B JUMP JUMPDEST DUP4 PUSH20 0xFFFFFFFFFFFFFFFFFFFFFFFFFFFFFFFFFFFFFFFF AND PUSH1 0x80 DUP2 PUSH20 0xFFFFFFFFFFFFFFFFFFFFFFFFFFFFFFFFFFFFFFFF AND DUP2 MSTORE POP POP DUP3 PUSH20 0xFFFFFFFFFFFFFFFFFFFFFFFFFFFFFFFFFFFFFFFF AND PUSH1 0xA0 DUP2 PUSH20 0xFFFFFFFFFFFFFFFFFFFFFFFFFFFFFFFFFFFFFFFF AND DUP2 MSTORE POP POP DUP2 PUSH1 0xC0 DUP2 DUP2 MSTORE POP POP DUP1 PUSH1 0x1 DUP2 GT ISZERO PUSH2 0xB5 JUMPI PUSH2 0xB4 PUSH2 0x1EF JUMP JUMPDEST JUMPDEST PUSH1 0xE0 DUP2 PUSH1 0x1 DUP2 GT ISZERO PUSH2 0xCA JUMPI PUSH2 0xC9 PUSH2 0x1EF JUMP JUMPDEST JUMPDEST DUP2 MSTORE POP POP POP POP POP POP PUSH2 0x21C JUMP JUMPDEST PUSH0 PUSH0 REVERT JUMPDEST PUSH0 PUSH20 0xFFFFFFFFFFFFFFFFFFFFFFFFFFFFFFFFFFFFFFFF DUP3 AND SWAP1 POP SWAP2 SWAP1 POP JUMP JUMPDEST PUSH0 PUSH2 0x104 DUP3 PUSH2 0xDB JUMP JUMPDEST SWAP1 POP SWAP2 SWAP1 POP JUMP JUMPDEST PUSH2 0x114 DUP2 PUSH2 0xFA JUMP JUMPDEST DUP2 EQ PUSH2 0x11E JUMPI PUSH0 PUSH0 REVERT JUMPDEST POP JUMP JUMPDEST PUSH0 DUP2 MLOAD SWAP1 POP PUSH2 0x12F DUP2 PUSH2 0x10B JUMP JUMPDEST SWAP3 SWAP2 POP POP JUMP JUMPDEST PUSH0 DUP2 SWAP1 POP SWAP2 SWAP1 POP JUMP JUMPDEST PUSH2 0x147 DUP2 PUSH2 0x135 JUMP JUMPDEST DUP2 EQ PUSH2 0x151 JUMPI PUSH0 PUSH0 REVERT JUMPDEST POP JUMP JUMPDEST PUSH0 DUP2 MLOAD SWAP1 POP PUSH2 0x162 DUP2 PUSH2 0x13E JUMP JUMPDEST SWAP3 SWAP2 POP POP JUMP JUMPDEST PUSH1 0x2 DUP2 LT PUSH2 0x174 JUMPI PUSH0 PUSH0 REVERT JUMPDEST POP JUMP JUMPDEST PUSH0 DUP2 MLOAD SWAP1 POP PUSH2 0x185 DUP2 PUSH2 0x168 JUMP JUMPDEST SWAP3 SWAP2 POP POP JUMP JUMPDEST PUSH0 PUSH0 PUSH0 PUSH0 PUSH1 0x80 DUP6 DUP8 SUB SLT ISZERO PUSH2 0x1A3 JUMPI PUSH2 0x1A2 PUSH2 0xD7 JUMP JUMPDEST JUMPDEST PUSH0 PUSH2 0x1B0 DUP8 DUP3 DUP9 ADD PUSH2 0x121 JUMP JUMPDEST SWAP5 POP POP PUSH1 0x20 PUSH2 0x1C1 DUP8 DUP3 DUP9 ADD PUSH2 0x121 JUMP JUMPDEST SWAP4 POP POP PUSH1 0x40 PUSH2 0x1D2 DUP8 DUP3 DUP9 ADD PUSH2 0x154 JUMP JUMPDEST SWAP3 POP POP PUSH1 0x60 PUSH2 0x1E3 DUP8 DUP3 DUP9 ADD PUSH2 0x177 JUMP JUMPDEST SWAP2 POP POP SWAP3 SWAP6 SWAP2 SWAP5 POP SWAP3 POP JUMP JUMPDEST PUSH32 0x4E487B7100000000000000000000000000000000000000000000000000000000 PUSH0 MSTORE PUSH1 0x21 PUSH1 0x4 MSTORE PUSH1 0x24 PUSH0 REVERT JUMPDEST PUSH1 0x80 MLOAD PUSH1 0xA0 MLOAD PUSH1 0xC0 MLOAD PUSH1 0xE0 MLOAD PUSH2 0x1573 PUSH2 0x287 PUSH0 CODECOPY PUSH0 DUP2 DUP2 PUSH2 0x18A ADD MSTORE DUP2 DUP2 PUSH2 0x2CA ADD MSTORE PUSH2 0x788 ADD MSTORE PUSH0 DUP2 DUP2 PUSH2 0x4D8 ADD MSTORE PUSH2 0x60B ADD MSTORE PUSH0 DUP2 DUP2 PUSH2 0x1AE ADD MSTORE PUSH2 0x6BF ADD MSTORE PUSH0 DUP2 DUP2 PUSH2 0x302 ADD MSTORE DUP2 DUP2 PUSH2 0x3E3 ADD MSTORE DUP2 DUP2 PUSH2 0x7C0 ADD MSTORE DUP2 DUP2 PUSH2 0x89F ADD MSTORE PUSH2 0x982 ADD MSTORE PUSH2 0x1573 PUSH0 RETURN INVALID PUSH1 0x80 PUSH1 0x40 MSTORE CALLVALUE DUP1 ISZERO PUSH2 0xF JUMPI PUSH0 PUSH0 REVERT JUMPDEST POP PUSH1 0x4 CALLDATASIZE LT PUSH2 0x86 JUMPI PUSH0 CALLDATALOAD PUSH1 0xE0 SHR DUP1 PUSH4 0xC4AF1C0B GT PUSH2 0x59 JUMPI DUP1 PUSH4 0xC4AF1C0B EQ PUSH2 0x112 JUMPI DUP1 PUSH4 0xFAA916D3 EQ PUSH2 0x130 JUMPI DUP1 PUSH4 0xFC0C546A EQ PUSH2 0x14C JUMPI DUP1 PUSH4 0xFD10EBE5 EQ PUSH2 0x16A JUMPI PUSH2 0x86 JUMP JUMPDEST DUP1 PUSH4 0x295A5212 EQ PUSH2 0x8A JUMPI DUP1 PUSH4 0x8406C079 EQ PUSH2 0xA8 JUMPI DUP1 PUSH4 0x91DAE519 EQ PUSH2 0xC6 JUMPI DUP1 PUSH4 0x9394D2E8 EQ PUSH2 0xF6 JUMPI JUMPDEST PUSH0 PUSH0 REVERT JUMPDEST PUSH2 0x92 PUSH2 0x188 JUMP JUMPDEST PUSH1 0x40 MLOAD PUSH2 0x9F SWAP2 SWAP1 PUSH2 0xD17 JUMP JUMPDEST PUSH1 0x40 MLOAD DUP1 SWAP2 SUB SWAP1 RETURN JUMPDEST PUSH2 0xB0 PUSH2 0x1AC JUMP JUMPDEST PUSH1 0x40 MLOAD PUSH2 0xBD SWAP2 SWAP1 PUSH2 0xD6F JUMP JUMPDEST PUSH1 0x40 MLOAD DUP1 SWAP2 SUB SWAP1 RETURN JUMPDEST PUSH2 0xE0 PUSH1 0x4 DUP1 CALLDATASIZE SUB DUP2 ADD SWAP1 PUSH2 0xDB SWAP2 SWAP1 PUSH2 0xDC3 JUMP JUMPDEST PUSH2 0x1D0 JUMP JUMPDEST PUSH1 0x40 MLOAD PUSH2 0xED SWAP2 SWAP1 PUSH2 0xE08 JUMP JUMPDEST PUSH1 0x40 MLOAD DUP1 SWAP2 SUB SWAP1 RETURN JUMPDEST PUSH2 0x110 PUSH1 0x4 DUP1 CALLDATASIZE SUB DUP2 ADD SWAP1 PUSH2 0x10B SWAP2 SWAP1 PUSH2 0xE4B JUMP JUMPDEST PUSH2 0x1ED JUMP JUMPDEST STOP JUMPDEST PUSH2 0x11A PUSH2 0x4D6 JUMP JUMPDEST PUSH1 0x40 MLOAD PUSH2 0x127 SWAP2 SWAP1 PUSH2 0xE98 JUMP JUMPDEST PUSH1 0x40 MLOAD DUP1 SWAP2 SUB SWAP1 RETURN JUMPDEST PUSH2 0x14A PUSH1 0x4 DUP1 CALLDATASIZE SUB DUP2 ADD SWAP1 PUSH2 0x145 SWAP2 SWAP1 PUSH2 0xF12 JUMP JUMPDEST PUSH2 0x4FA JUMP JUMPDEST STOP JUMPDEST PUSH2 0x154 PUSH2 0x980 JUMP JUMPDEST PUSH1 0x40 MLOAD PUSH2 0x161 SWAP2 SWAP1 PUSH2 0xFF1 JUMP JUMPDEST PUSH1 0x40 MLOAD DUP1 SWAP2 SUB SWAP1 RETURN JUMPDEST PUSH2 0x172 PUSH2 0x9A4 JUMP JUMPDEST PUSH1 0x40 MLOAD PUSH2 0x17F SWAP2 SWAP1 PUSH2 0xE98 JUMP JUMPDEST PUSH1 0x40 MLOAD DUP1 SWAP2 SUB SWAP1 RETURN JUMPDEST PUSH32 0x0 DUP2 JUMP JUMPDEST PUSH32 0x0 DUP2 JUMP JUMPDEST PUSH1 0x1 PUSH1 0x20 MSTORE DUP1 PUSH0 MSTORE PUSH1 0x40 PUSH0 KECCAK256 PUSH0 SWAP2 POP SLOAD SWAP1 PUSH2 0x100 EXP SWAP1 DIV PUSH1 0xFF AND DUP2 JUMP JUMPDEST PUSH0 DUP3 GT PUSH2 0x22F JUMPI PUSH1 0x40 MLOAD PUSH32 0x8C379A000000000000000000000000000000000000000000000000000000000 DUP2 MSTORE PUSH1 0x4 ADD PUSH2 0x226 SWAP1 PUSH2 0x1064 JUMP JUMPDEST PUSH1 0x40 MLOAD DUP1 SWAP2 SUB SWAP1 REVERT JUMPDEST PUSH0 PUSH20 0xFFFFFFFFFFFFFFFFFFFFFFFFFFFFFFFFFFFFFFFF AND DUP2 PUSH20 0xFFFFFFFFFFFFFFFFFFFFFFFFFFFFFFFFFFFFFFFF AND SUB PUSH2 0x29D JUMPI PUSH1 0x40 MLOAD PUSH32 0x8C379A000000000000000000000000000000000000000000000000000000000 DUP2 MSTORE PUSH1 0x4 ADD PUSH2 0x294 SWAP1 PUSH2 0x10CC JUMP JUMPDEST PUSH1 0x40 MLOAD DUP1 SWAP2 SUB SWAP1 REVERT JUMPDEST PUSH0 PUSH0 PUSH0 DUP2 SLOAD DUP1 SWAP3 SWAP2 SWAP1 PUSH2 0x2AF SWAP1 PUSH2 0x1117 JUMP JUMPDEST SWAP2 SWAP1 POP SSTORE SWAP1 POP PUSH0 PUSH1 0x1 DUP2 GT ISZERO PUSH2 0x2C8 JUMPI PUSH2 0x2C7 PUSH2 0xCA4 JUMP JUMPDEST JUMPDEST PUSH32 0x0 PUSH1 0x1 DUP2 GT ISZERO PUSH2 0x2FB JUMPI PUSH2 0x2FA PUSH2 0xCA4 JUMP JUMPDEST JUMPDEST SUB PUSH2 0x3E1 JUMPI PUSH32 0x0 PUSH20 0xFFFFFFFFFFFFFFFFFFFFFFFFFFFFFFFFFFFFFFFF AND PUSH4 0x23B872DD CALLER ADDRESS DUP7 PUSH1 0x40 MLOAD DUP5 PUSH4 0xFFFFFFFF AND PUSH1 0xE0 SHL DUP2 MSTORE PUSH1 0x4 ADD PUSH2 0x35D SWAP4 SWAP3 SWAP2 SWAP1 PUSH2 0x115E JUMP JUMPDEST PUSH1 0x20 PUSH1 0x40 MLOAD DUP1 DUP4 SUB DUP2 PUSH0 DUP8 GAS CALL ISZERO DUP1 ISZERO PUSH2 0x379 JUMPI RETURNDATASIZE PUSH0 PUSH0 RETURNDATACOPY RETURNDATASIZE PUSH0 REVERT JUMPDEST POP POP POP POP PUSH1 0x40 MLOAD RETURNDATASIZE PUSH1 0x1F NOT PUSH1 0x1F DUP3 ADD AND DUP3 ADD DUP1 PUSH1 0x40 MSTORE POP DUP2 ADD SWAP1 PUSH2 0x39D SWAP2 SWAP1 PUSH2 0x11BD JUMP JUMPDEST PUSH2 0x3DC JUMPI PUSH1 0x40 MLOAD PUSH32 0x8C379A000000000000000000000000000000000000000000000000000000000 DUP2 MSTORE PUSH1 0x4 ADD PUSH2 0x3D3 SWAP1 PUSH2 0x1232 JUMP JUMPDEST PUSH1 0x40 MLOAD DUP1 SWAP2 SUB SWAP1 REVERT JUMPDEST PUSH2 0x46A JUMP JUMPDEST PUSH32 0x0 PUSH20 0xFFFFFFFFFFFFFFFFFFFFFFFFFFFFFFFFFFFFFFFF AND PUSH4 0x9DC29FAC CALLER DUP6 PUSH1 0x40 MLOAD DUP4 PUSH4 0xFFFFFFFF AND PUSH1 0xE0 SHL DUP2 MSTORE PUSH1 0x4 ADD PUSH2 0x43C SWAP3 SWAP2 SWAP1 PUSH2 0x1250 JUMP JUMPDEST PUSH0 PUSH1 0x40 MLOAD DUP1 DUP4 SUB DUP2 PUSH0 DUP8 DUP1 EXTCODESIZE ISZERO DUP1 ISZERO PUSH2 0x453 JUMPI PUSH0 PUSH0 REVERT JUMPDEST POP GAS CALL ISZERO DUP1 ISZERO PUSH2 0x465 JUMPI RETURNDATASIZE PUSH0 PUSH0 RETURNDATACOPY RETURNDATASIZE PUSH0 REVERT JUMPDEST POP POP POP POP JUMPDEST DUP2 PUSH20 0xFFFFFFFFFFFFFFFFFFFFFFFFFFFFFFFFFFFFFFFF AND CALLER PUSH20 0xFFFFFFFFFFFFFFFFFFFFFFFFFFFFFFFFFFFFFFFF AND PUSH32 0x6A21742B1943E14EB12E527B823F24FB8041781335A6397B6C22A683722E4C5E DUP6 DUP5 PUSH1 0x40 MLOAD PUSH2 0x4C9 SWAP3 SWAP2 SWAP1 PUSH2 0x1277 JUMP JUMPDEST PUSH1 0x40 MLOAD DUP1 SWAP2 SUB SWAP1 LOG3 POP POP POP JUMP JUMPDEST PUSH32 0x0 DUP2 JUMP JUMPDEST PUSH1 0x1 PUSH0 DUP5 DUP2 MSTORE PUSH1 0x20 ADD SWAP1 DUP2 MSTORE PUSH1 0x20 ADD PUSH0 KECCAK256 PUSH0 SWAP1 SLOAD SWAP1 PUSH2 0x100 EXP SWAP1 DIV PUSH1 0xFF AND ISZERO PUSH2 0x558 JUMPI PUSH1 0x40 MLOAD PUSH32 0x8C379A000000000000000000000000000000000000000000000000000000000 DUP2 MSTORE PUSH1 0x4 ADD PUSH2 0x54F SWAP1 PUSH2 0x12E8 JUMP JUMPDEST PUSH1 0x40 MLOAD DUP1 SWAP2 SUB SWAP1 REVERT JUMPDEST PUSH0 PUSH20 0xFFFFFFFFFFFFFFFFFFFFFFFFFFFFFFFFFFFFFFFF AND DUP6 PUSH20 0xFFFFFFFFFFFFFFFFFFFFFFFFFFFFFFFFFFFFFFFF AND SUB PUSH2 0x5C6 JUMPI PUSH1 0x40 MLOAD PUSH32 0x8C379A000000000000000000000000000000000000000000000000000000000 DUP2 MSTORE PUSH1 0x4 ADD PUSH2 0x5BD SWAP1 PUSH2 0x10CC JUMP JUMPDEST PUSH1 0x40 MLOAD DUP1 SWAP2 SUB SWAP1 REVERT JUMPDEST PUSH0 DUP5 GT PUSH2 0x608 JUMPI PUSH1 0x40 MLOAD PUSH32 0x8C379A000000000000000000000000000000000000000000000000000000000 DUP2 MSTORE PUSH1 0x4 ADD PUSH2 0x5FF SWAP1 PUSH2 0x1064 JUMP JUMPDEST PUSH1 0x40 MLOAD DUP1 SWAP2 SUB SWAP1 REVERT JUMPDEST PUSH0 PUSH32 0x0 DUP7 DUP7 DUP7 PUSH1 0x40 MLOAD PUSH1 0x20 ADD PUSH2 0x640 SWAP5 SWAP4 SWAP3 SWAP2 SWAP1 PUSH2 0x136B JUMP JUMPDEST PUSH1 0x40 MLOAD PUSH1 0x20 DUP2 DUP4 SUB SUB DUP2 MSTORE SWAP1 PUSH1 0x40 MSTORE DUP1 MLOAD SWAP1 PUSH1 0x20 ADD KECCAK256 SWAP1 POP PUSH0 PUSH2 0x662 DUP3 PUSH2 0x9A9 JUMP JUMPDEST SWAP1 POP PUSH0 PUSH2 0x6BB DUP6 DUP6 DUP1 DUP1 PUSH1 0x1F ADD PUSH1 0x20 DUP1 SWAP2 DIV MUL PUSH1 0x20 ADD PUSH1 0x40 MLOAD SWAP1 DUP2 ADD PUSH1 0x40 MSTORE DUP1 SWAP4 SWAP3 SWAP2 SWAP1 DUP2 DUP2 MSTORE PUSH1 0x20 ADD DUP4 DUP4 DUP1 DUP3 DUP5 CALLDATACOPY PUSH0 DUP2 DUP5 ADD MSTORE PUSH1 0x1F NOT PUSH1 0x1F DUP3 ADD AND SWAP1 POP DUP1 DUP4 ADD SWAP3 POP POP POP POP POP POP POP DUP4 PUSH2 0x9DC SWAP1 SWAP2 SWAP1 PUSH4 0xFFFFFFFF AND JUMP JUMPDEST SWAP1 POP PUSH32 0x0 PUSH20 0xFFFFFFFFFFFFFFFFFFFFFFFFFFFFFFFFFFFFFFFF AND DUP2 PUSH20 0xFFFFFFFFFFFFFFFFFFFFFFFFFFFFFFFFFFFFFFFF AND EQ PUSH2 0x74B JUMPI PUSH1 0x40 MLOAD PUSH32 0x8C379A000000000000000000000000000000000000000000000000000000000 DUP2 MSTORE PUSH1 0x4 ADD PUSH2 0x742 SWAP1 PUSH2 0x1428 JUMP JUMPDEST PUSH1 0x40 MLOAD DUP1 SWAP2 SUB SWAP1 REVERT JUMPDEST PUSH1 0x1 DUP1 PUSH0 DUP9 DUP2 MSTORE PUSH1 0x20 ADD SWAP1 DUP2 MSTORE PUSH1 0x20 ADD PUSH0 KECCAK256 PUSH0 PUSH2 0x100 EXP DUP2 SLOAD DUP2 PUSH1 0xFF MUL NOT AND SWAP1 DUP4 ISZERO ISZERO MUL OR SWAP1 SSTORE POP PUSH0 PUSH1 0x1 DUP2 GT ISZERO PUSH2 0x786 JUMPI PUSH2 0x785 PUSH2 0xCA4 JUMP JUMPDEST JUMPDEST PUSH32 0x0 PUSH1 0x1 DUP2 GT ISZERO PUSH2 0x7B9 JUMPI PUSH2 0x7B8 PUSH2 0xCA4 JUMP JUMPDEST JUMPDEST SUB PUSH2 0x89D JUMPI PUSH32 0x0 PUSH20 0xFFFFFFFFFFFFFFFFFFFFFFFFFFFFFFFFFFFFFFFF AND PUSH4 0xA9059CBB DUP10 DUP10 PUSH1 0x40 MLOAD DUP4 PUSH4 0xFFFFFFFF AND PUSH1 0xE0 SHL DUP2 MSTORE PUSH1 0x4 ADD PUSH2 0x819 SWAP3 SWAP2 SWAP1 PUSH2 0x1250 JUMP JUMPDEST PUSH1 0x20 PUSH1 0x40 MLOAD DUP1 DUP4 SUB DUP2 PUSH0 DUP8 GAS CALL ISZERO DUP1 ISZERO PUSH2 0x835 JUMPI RETURNDATASIZE PUSH0 PUSH0 RETURNDATACOPY RETURNDATASIZE PUSH0 REVERT JUMPDEST POP POP POP POP PUSH1 0x40 MLOAD RETURNDATASIZE PUSH1 0x1F NOT PUSH1 0x1F DUP3 ADD AND DUP3 ADD DUP1 PUSH1 0x40 MSTORE POP DUP2 ADD SWAP1 PUSH2 0x859 SWAP2 SWAP1 PUSH2 0x11BD JUMP JUMPDEST PUSH2 0x898 JUMPI PUSH1 0x40 MLOAD PUSH32 0x8C379A000000000000000000000000000000000000000000000000000000000 DUP2 MSTORE PUSH1 0x4 ADD PUSH2 0x88F SWAP1 PUSH2 0x1490 JUMP JUMPDEST PUSH1 0x40 MLOAD DUP1 SWAP2 SUB SWAP1 REVERT JUMPDEST PUSH2 0x926 JUMP JUMPDEST PUSH32 0x0 PUSH20 0xFFFFFFFFFFFFFFFFFFFFFFFFFFFFFFFFFFFFFFFF AND PUSH4 0x40C10F19 DUP10 DUP10 PUSH1 0x40 MLOAD DUP4 PUSH4 0xFFFFFFFF AND PUSH1 0xE0 SHL DUP2 MSTORE PUSH1 0x4 ADD PUSH2 0x8F8 SWAP3 SWAP2 SWAP1 PUSH2 0x1250 JUMP JUMPDEST PUSH0 PUSH1 0x40 MLOAD DUP1 DUP4 SUB DUP2 PUSH0 DUP8 DUP1 EXTCODESIZE ISZERO DUP1 ISZERO PUSH2 0x90F JUMPI PUSH0 PUSH0 REVERT JUMPDEST POP GAS CALL ISZERO DUP1 ISZERO PUSH2 0x921 JUMPI RETURNDATASIZE PUSH0 PUSH0 RETURNDATACOPY RETURNDATASIZE PUSH0 REVERT JUMPDEST POP POP POP POP JUMPDEST DUP8 PUSH20 0xFFFFFFFFFFFFFFFFFFFFFFFFFFFFFFFFFFFFFFFF AND PUSH32 0x81D0B274A0694F8C5FAE0A8472AC07928F4B6456B6E26DD3810132A354343840 DUP9 DUP9 PUSH1 0x40 MLOAD PUSH2 0x96E SWAP3 SWAP2 SWAP1 PUSH2 0x1277 JUMP JUMPDEST PUSH1 0x40 MLOAD DUP1 SWAP2 SUB SWAP1 LOG2 POP POP POP POP POP POP POP POP JUMP JUMPDEST PUSH32 0x0 DUP2 JUMP JUMPDEST PUSH0 SLOAD DUP2 JUMP JUMPDEST PUSH0 PUSH32 0x19457468657265756D205369676E6564204D6573736167653A0A333200000000 PUSH0 MSTORE DUP2 PUSH1 0x1C MSTORE PUSH1 0x3C PUSH0 KECCAK256 SWAP1 POP SWAP2 SWAP1 POP JUMP JUMPDEST PUSH0 PUSH0 PUSH0 PUSH0 PUSH2 0x9EA DUP7 DUP7 PUSH2 0xA06 JUMP JUMPDEST SWAP3 POP SWAP3 POP SWAP3 POP PUSH2 0x9FA DUP3 DUP3 PUSH2 0xA5B JUMP JUMPDEST DUP3 SWAP4 POP POP POP POP SWAP3 SWAP2 POP POP JUMP JUMPDEST PUSH0 PUSH0 PUSH0 PUSH1 0x41 DUP5 MLOAD SUB PUSH2 0xA46 JUMPI PUSH0 PUSH0 PUSH0 PUSH1 0x20 DUP8 ADD MLOAD SWAP3 POP PUSH1 0x40 DUP8 ADD MLOAD SWAP2 POP PUSH1 0x60 DUP8 ADD MLOAD PUSH0 BYTE SWAP1 POP PUSH2 0xA38 DUP9 DUP3 DUP6 DUP6 PUSH2 0xBBD JUMP JUMPDEST SWAP6 POP SWAP6 POP SWAP6 POP POP POP POP PUSH2 0xA54 JUMP JUMPDEST PUSH0 PUSH1 0x2 DUP6 MLOAD PUSH0 SHL SWAP3 POP SWAP3 POP SWAP3 POP JUMPDEST SWAP3 POP SWAP3 POP SWAP3 JUMP JUMPDEST PUSH0 PUSH1 0x3 DUP2 GT ISZERO PUSH2 0xA6E JUMPI PUSH2 0xA6D PUSH2 0xCA4 JUMP JUMPDEST JUMPDEST DUP3 PUSH1 0x3 DUP2 GT ISZERO PUSH2 0xA81 JUMPI PUSH2 0xA80 PUSH2 0xCA4 JUMP JUMPDEST JUMPDEST SUB ISZERO PUSH2 0xBB9 JUMPI PUSH1 0x1 PUSH1 0x3 DUP2 GT ISZERO PUSH2 0xA9B JUMPI PUSH2 0xA9A PUSH2 0xCA4 JUMP JUMPDEST JUMPDEST DUP3 PUSH1 0x3 DUP2 GT ISZERO PUSH2 0xAAE JUMPI PUSH2 0xAAD PUSH2 0xCA4 JUMP JUMPDEST JUMPDEST SUB PUSH2 0xAE5 JUMPI PUSH1 0x40 MLOAD PUSH32 0xF645EEDF00000000000000000000000000000000000000000000000000000000 DUP2 MSTORE PUSH1 0x4 ADD PUSH1 0x40 MLOAD DUP1 SWAP2 SUB SWAP1 REVERT JUMPDEST PUSH1 0x2 PUSH1 0x3 DUP2 GT ISZERO PUSH2 0xAF9 JUMPI PUSH2 0xAF8 PUSH2 0xCA4 JUMP JUMPDEST JUMPDEST DUP3 PUSH1 0x3 DUP2 GT ISZERO PUSH2 0xB0C JUMPI PUSH2 0xB0B PUSH2 0xCA4 JUMP JUMPDEST JUMPDEST SUB PUSH2 0xB50 JUMPI DUP1 PUSH0 SHR PUSH1 0x40 MLOAD PUSH32 0xFCE698F700000000000000000000000000000000000000000000000000000000 DUP2 MSTORE PUSH1 0x4 ADD PUSH2 0xB47 SWAP2 SWAP1 PUSH2 0xE98 JUMP JUMPDEST PUSH1 0x40 MLOAD DUP1 SWAP2 SUB SWAP1 REVERT JUMPDEST PUSH1 0x3 DUP1 DUP2 GT ISZERO PUSH2 0xB63 JUMPI PUSH2 0xB62 PUSH2 0xCA4 JUMP JUMPDEST JUMPDEST DUP3 PUSH1 0x3 DUP2 GT ISZERO PUSH2 0xB76 JUMPI PUSH2 0xB75 PUSH2 0xCA4 JUMP JUMPDEST JUMPDEST SUB PUSH2 0xBB8 JUMPI DUP1 PUSH1 0x40 MLOAD PUSH32 0xD78BCE0C00000000000000000000000000000000000000000000000000000000 DUP2 MSTORE PUSH1 0x4 ADD PUSH2 0xBAF SWAP2 SWAP1 PUSH2 0x14C6 JUMP JUMPDEST PUSH1 0x40 MLOAD DUP1 SWAP2 SUB SWAP1 REVERT JUMPDEST JUMPDEST POP POP JUMP JUMPDEST PUSH0 PUSH0 PUSH0 PUSH32 0x7FFFFFFFFFFFFFFFFFFFFFFFFFFFFFFF5D576E7357A4501DDFE92F46681B20A0 DUP5 PUSH0 SHR GT ISZERO PUSH2 0xBF9 JUMPI PUSH0 PUSH1 0x3 DUP6 SWAP3 POP SWAP3 POP SWAP3 POP PUSH2 0xC9A JUMP JUMPDEST PUSH0 PUSH1 0x1 DUP9 DUP9 DUP9 DUP9 PUSH1 0x40 MLOAD PUSH0 DUP2 MSTORE PUSH1 0x20 ADD PUSH1 0x40 MSTORE PUSH1 0x40 MLOAD PUSH2 0xC1C SWAP5 SWAP4 SWAP3 SWAP2 SWAP1 PUSH2 0x14FA JUMP JUMPDEST PUSH1 0x20 PUSH1 0x40 MLOAD PUSH1 0x20 DUP2 SUB SWAP1 DUP1 DUP5 SUB SWAP1 DUP6 GAS STATICCALL ISZERO DUP1 ISZERO PUSH2 0xC3C JUMPI RETURNDATASIZE PUSH0 PUSH0 RETURNDATACOPY RETURNDATASIZE PUSH0 REVERT JUMPDEST POP POP POP PUSH1 0x20 PUSH1 0x40 MLOAD SUB MLOAD SWAP1 POP PUSH0 PUSH20 0xFFFFFFFFFFFFFFFFFFFFFFFFFFFFFFFFFFFFFFFF AND DUP2 PUSH20 0xFFFFFFFFFFFFFFFFFFFFFFFFFFFFFFFFFFFFFFFF AND SUB PUSH2 0xC8D JUMPI PUSH0 PUSH1 0x1 PUSH0 PUSH0 SHL SWAP4 POP SWAP4 POP SWAP4 POP POP PUSH2 0xC9A JUMP JUMPDEST DUP1 PUSH0 PUSH0 PUSH0 SHL SWAP4 POP SWAP4 POP SWAP4 POP POP JUMPDEST SWAP5 POP SWAP5 POP SWAP5 SWAP2 POP POP JUMP JUMPDEST PUSH32 0x4E487B7100000000000000000000000000000000000000000000000000000000 PUSH0 MSTORE PUSH1 0x21 PUSH1 0x4 MSTORE PUSH1 0x24 PUSH0 REVERT JUMPDEST PUSH1 0x2 DUP2 LT PUSH2 0xCE2 JUMPI PUSH2 0xCE1 PUSH2 0xCA4 JUMP JUMPDEST JUMPDEST POP JUMP JUMPDEST PUSH0 DUP2 SWAP1 POP PUSH2 0xCF2 DUP3 PUSH2 0xCD1 JUMP JUMPDEST SWAP2 SWAP1 POP JUMP JUMPDEST PUSH0 PUSH2 0xD01 DUP3 PUSH2 0xCE5 JUMP JUMPDEST SWAP1 POP SWAP2 SWAP1 POP JUMP JUMPDEST PUSH2 0xD11 DUP2 PUSH2 0xCF7 JUMP JUMPDEST DUP3 MSTORE POP POP JUMP JUMPDEST PUSH0 PUSH1 0x20 DUP3 ADD SWAP1 POP PUSH2 0xD2A PUSH0 DUP4 ADD DUP5 PUSH2 0xD08 JUMP JUMPDEST SWAP3 SWAP2 POP POP JUMP JUMPDEST PUSH0 PUSH20 0xFFFFFFFFFFFFFFFFFFFFFFFFFFFFFFFFFFFFFFFF DUP3 AND SWAP1 POP SWAP2 SWAP1 POP JUMP JUMPDEST PUSH0 PUSH2 0xD59 DUP3 PUSH2 0xD30 JUMP JUMPDEST SWAP1 POP SWAP2 SWAP1 POP JUMP JUMPDEST PUSH2 0xD69 DUP2 PUSH2 0xD4F JUMP JUMPDEST DUP3 MSTORE POP POP JUMP JUMPDEST PUSH0 PUSH1 0x20 DUP3 ADD SWAP1 POP PUSH2 0xD82 PUSH0 DUP4 ADD DUP5 PUSH2 0xD60 JUMP JUMPDEST SWAP3 SWAP2 POP POP JUMP JUMPDEST PUSH0 PUSH0 REVERT JUMPDEST PUSH0 PUSH0 REVERT JUMPDEST PUSH0 DUP2 SWAP1 POP SWAP2 SWAP1 POP JUMP JUMPDEST PUSH2 0xDA2 DUP2 PUSH2 0xD90 JUMP JUMPDEST DUP2 EQ PUSH2 0xDAC JUMPI PUSH0 PUSH0 REVERT JUMPDEST POP JUMP JUMPDEST PUSH0 DUP2 CALLDATALOAD SWAP1 POP PUSH2 0xDBD DUP2 PUSH2 0xD99 JUMP JUMPDEST SWAP3 SWAP2 POP POP JUMP JUMPDEST PUSH0 PUSH1 0x20 DUP3 DUP5 SUB SLT ISZERO PUSH2 0xDD8 JUMPI PUSH2 0xDD7 PUSH2 0xD88 JUMP JUMPDEST JUMPDEST PUSH0 PUSH2 0xDE5 DUP5 DUP3 DUP6 ADD PUSH2 0xDAF JUMP JUMPDEST SWAP2 POP POP SWAP3 SWAP2 POP POP JUMP JUMPDEST PUSH0 DUP2 ISZERO ISZERO SWAP1 POP SWAP2 SWAP1 POP JUMP JUMPDEST PUSH2 0xE02 DUP2 PUSH2 0xDEE JUMP JUMPDEST DUP3 MSTORE POP POP JUMP JUMPDEST PUSH0 PUSH1 0x20 DUP3 ADD SWAP1 POP PUSH2 0xE1B PUSH0 DUP4 ADD DUP5 PUSH2 0xDF9 JUMP JUMPDEST SWAP3 SWAP2 POP POP JUMP JUMPDEST PUSH2 0xE2A DUP2 PUSH2 0xD4F JUMP JUMPDEST DUP2 EQ PUSH2 0xE34 JUMPI PUSH0 PUSH0 REVERT JUMPDEST POP JUMP JUMPDEST PUSH0 DUP2 CALLDATALOAD SWAP1 POP PUSH2 0xE45 DUP2 PUSH2 0xE21 JUMP JUMPDEST SWAP3 SWAP2 POP POP JUMP JUMPDEST PUSH0 PUSH0 PUSH1 0x40 DUP4 DUP6 SUB SLT ISZERO PUSH2 0xE61 JUMPI PUSH2 0xE60 PUSH2 0xD88 JUMP JUMPDEST JUMPDEST PUSH0 PUSH2 0xE6E DUP6 DUP3 DUP7 ADD PUSH2 0xDAF JUMP JUMPDEST SWAP3 POP POP PUSH1 0x20 PUSH2 0xE7F DUP6 DUP3 DUP7 ADD PUSH2 0xE37 JUMP JUMPDEST SWAP2 POP POP SWAP3 POP SWAP3 SWAP1 POP JUMP JUMPDEST PUSH2 0xE92 DUP2 PUSH2 0xD90 JUMP JUMPDEST DUP3 MSTORE POP POP JUMP JUMPDEST PUSH0 PUSH1 0x20 DUP3 ADD SWAP1 POP PUSH2 0xEAB PUSH0 DUP4 ADD DUP5 PUSH2 0xE89 JUMP JUMPDEST SWAP3 SWAP2 POP POP JUMP JUMPDEST PUSH0 PUSH0 REVERT JUMPDEST PUSH0 PUSH0 REVERT JUMPDEST PUSH0 PUSH0 REVERT JUMPDEST PUSH0 PUSH0 DUP4 PUSH1 0x1F DUP5 ADD SLT PUSH2 0xED2 JUMPI PUSH2 0xED1 PUSH2 0xEB1 JUMP JUMPDEST JUMPDEST DUP3 CALLDATALOAD SWAP1 POP PUSH8 0xFFFFFFFFFFFFFFFF DUP2 GT ISZERO PUSH2 0xEEF JUMPI PUSH2 0xEEE PUSH2 0xEB5 JUMP JUMPDEST JUMPDEST PUSH1 0x20 DUP4 ADD SWAP2 POP DUP4 PUSH1 0x1 DUP3 MUL DUP4 ADD GT ISZERO PUSH2 0xF0B JUMPI PUSH2 0xF0A PUSH2 0xEB9 JUMP JUMPDEST JUMPDEST SWAP3 POP SWAP3 SWAP1 POP JUMP JUMPDEST PUSH0 PUSH0 PUSH0 PUSH0 PUSH0 PUSH1 0x80 DUP7 DUP9 SUB SLT ISZERO PUSH2 0xF2B JUMPI PUSH2 0xF2A PUSH2 0xD88 JUMP JUMPDEST JUMPDEST PUSH0 PUSH2 0xF38 DUP9 DUP3 DUP10 ADD PUSH2 0xE37 JUMP JUMPDEST SWAP6 POP POP PUSH1 0x20 PUSH2 0xF49 DUP9 DUP3 DUP10 ADD PUSH2 0xDAF JUMP JUMPDEST SWAP5 POP POP PUSH1 0x40 PUSH2 0xF5A DUP9 DUP3 DUP10 ADD PUSH2 0xDAF JUMP JUMPDEST SWAP4 POP POP PUSH1 0x60 DUP7 ADD CALLDATALOAD PUSH8 0xFFFFFFFFFFFFFFFF DUP2 GT ISZERO PUSH2 0xF7B JUMPI PUSH2 0xF7A PUSH2 0xD8C JUMP JUMPDEST JUMPDEST PUSH2 0xF87 DUP9 DUP3 DUP10 ADD PUSH2 0xEBD JUMP JUMPDEST SWAP3 POP SWAP3 POP POP SWAP3 SWAP6 POP SWAP3 SWAP6 SWAP1 SWAP4 POP JUMP JUMPDEST PUSH0 DUP2 SWAP1 POP SWAP2 SWAP1 POP JUMP JUMPDEST PUSH0 PUSH2 0xFB9 PUSH2 0xFB4 PUSH2 0xFAF DUP5 PUSH2 0xD30 JUMP JUMPDEST PUSH2 0xF96 JUMP JUMPDEST PUSH2 0xD30 JUMP JUMPDEST SWAP1 POP SWAP2 SWAP1 POP JUMP JUMPDEST PUSH0 PUSH2 0xFCA DUP3 PUSH2 0xF9F JUMP JUMPDEST SWAP1 POP SWAP2 SWAP1 POP JUMP JUMPDEST PUSH0 PUSH2 0xFDB DUP3 PUSH2 0xFC0 JUMP JUMPDEST SWAP1 POP SWAP2 SWAP1 POP JUMP JUMPDEST PUSH2 0xFEB DUP2 PUSH2 0xFD1 JUMP JUMPDEST DUP3 MSTORE POP POP JUMP JUMPDEST PUSH0 PUSH1 0x20 DUP3 ADD SWAP1 POP PUSH2 0x1004 PUSH0 DUP4 ADD DUP5 PUSH2 0xFE2 JUMP JUMPDEST SWAP3 SWAP2 POP POP JUMP JUMPDEST PUSH0 DUP3 DUP3 MSTORE PUSH1 0x20 DUP3 ADD SWAP1 POP SWAP3 SWAP2 POP POP JUMP JUMPDEST PUSH32 0x4272696467653A20616D6F756E74206D757374206265203E2030000000000000 PUSH0 DUP3 ADD MSTORE POP JUMP JUMPDEST PUSH0 PUSH2 0x104E PUSH1 0x1A DUP4 PUSH2 0x100A JUMP JUMPDEST SWAP2 POP PUSH2 0x1059 DUP3 PUSH2 0x101A JUMP JUMPDEST PUSH1 0x20 DUP3 ADD SWAP1 POP SWAP2 SWAP1 POP JUMP JUMPDEST PUSH0 PUSH1 0x20 DUP3 ADD SWAP1 POP DUP2 DUP2 SUB PUSH0 DUP4 ADD MSTORE PUSH2 0x107B DUP2 PUSH2 0x1042 JUMP JUMPDEST SWAP1 POP SWAP2 SWAP1 POP JUMP JUMPDEST PUSH32 0x4272696467653A20696E76616C696420726563697069656E7400000000000000 PUSH0 DUP3 ADD MSTORE POP JUMP JUMPDEST PUSH0 PUSH2 0x10B6 PUSH1 0x19 DUP4 PUSH2 0x100A JUMP JUMPDEST SWAP2 POP PUSH2 0x10C1 DUP3 PUSH2 0x1082 JUMP JUMPDEST PUSH1 0x20 DUP3 ADD SWAP1 POP SWAP2 SWAP1 POP JUMP JUMPDEST PUSH0 PUSH1 0x20 DUP3 ADD SWAP1 POP DUP2 DUP2 SUB PUSH0 DUP4 ADD MSTORE PUSH2 0x10E3 DUP2 PUSH2 0x10AA JUMP JUMPDEST SWAP1 POP SWAP2 SWAP1 POP JUMP JUMPDEST PUSH32 0x4E487B7100000000000000000000000000000000000000000000000000000000 PUSH0 MSTORE PUSH1 0x11 PUSH1 0x4 MSTORE PUSH1 0x24 PUSH0 REVERT JUMPDEST PUSH0 PUSH2 0x1121 DUP3 PUSH2 0xD90 JUMP JUMPDEST SWAP2 POP PUSH32 0xFFFFFFFFFFFFFFFFFFFFFFFFFFFFFFFFFFFFFFFFFFFFFFFFFFFFFFFFFFFFFFFF DUP3 SUB PUSH2 0x1153 JUMPI PUSH2 0x1152 PUSH2 0x10EA JUMP JUMPDEST JUMPDEST PUSH1 0x1 DUP3 ADD SWAP1 POP SWAP2 SWAP1 POP JUMP JUMPDEST PUSH0 PUSH1 0x60 DUP3 ADD SWAP1 POP PUSH2 0x1171 PUSH0 DUP4 ADD DUP7 PUSH2 0xD60 JUMP JUMPDEST PUSH2 0x117E PUSH1 0x20 DUP4 ADD DUP6 PUSH2 0xD60 JUMP JUMPDEST PUSH2 0x118B PUSH1 0x40 DUP4 ADD DUP5 PUSH2 0xE89 JUMP JUMPDEST SWAP5 SWAP4 POP POP POP POP JUMP JUMPDEST PUSH2 0x119C DUP2 PUSH2 0xDEE JUMP JUMPDEST DUP2 EQ PUSH2 0x11A6 JUMPI PUSH0 PUSH0 REVERT JUMPDEST POP JUMP JUMPDEST PUSH0 DUP2 MLOAD SWAP1 POP PUSH2 0x11B7 DUP2 PUSH2 0x1193 JUMP JUMPDEST SWAP3 SWAP2 POP POP JUMP JUMPDEST PUSH0 PUSH1 0x20 DUP3 DUP5 SUB SLT ISZERO PUSH2 0x11D2 JUMPI PUSH2 0x11D1 PUSH2 0xD88 JUMP JUMPDEST JUMPDEST PUSH0 PUSH2 0x11DF DUP5 DUP3 DUP6 ADD PUSH2 0x11A9 JUMP JUMPDEST SWAP2 POP POP SWAP3 SWAP2 POP POP JUMP JUMPDEST PUSH32 0x4272696467653A207472616E7366657246726F6D206661696C65640000000000 PUSH0 DUP3 ADD MSTORE POP JUMP JUMPDEST PUSH0 PUSH2 0x121C PUSH1 0x1B DUP4 PUSH2 0x100A JUMP JUMPDEST SWAP2 POP PUSH2 0x1227 DUP3 PUSH2 0x11E8 JUMP JUMPDEST PUSH1 0x20 DUP3 ADD SWAP1 POP SWAP2 SWAP1 POP JUMP JUMPDEST PUSH0 PUSH1 0x20 DUP3 ADD SWAP1 POP DUP2 DUP2 SUB PUSH0 DUP4 ADD MSTORE PUSH2 0x1249 DUP2 PUSH2 0x1210 JUMP JUMPDEST SWAP1 POP SWAP2 SWAP1 POP JUMP JUMPDEST PUSH0 PUSH1 0x40 DUP3 ADD SWAP1 POP PUSH2 0x1263 PUSH0 DUP4 ADD DUP6 PUSH2 0xD60 JUMP JUMPDEST PUSH2 0x1270 PUSH1 0x20 DUP4 ADD DUP5 PUSH2 0xE89 JUMP JUMPDEST SWAP4 SWAP3 POP POP POP JUMP JUMPDEST PUSH0 PUSH1 0x40 DUP3 ADD SWAP1 POP PUSH2 0x128A PUSH0 DUP4 ADD DUP6 PUSH2 0xE89 JUMP JUMPDEST PUSH2 0x1297 PUSH1 0x20 DUP4 ADD DUP5 PUSH2 0xE89 JUMP JUMPDEST SWAP4 SWAP3 POP POP POP JUMP JUMPDEST PUSH32 0x4272696467653A206E6F6E636520616C72656164792070726F63657373656400 PUSH0 DUP3 ADD MSTORE POP JUMP JUMPDEST PUSH0 PUSH2 0x12D2 PUSH1 0x1F DUP4 PUSH2 0x100A JUMP JUMPDEST SWAP2 POP PUSH2 0x12DD DUP3 PUSH2 0x129E JUMP JUMPDEST PUSH1 0x20 DUP3 ADD SWAP1 POP SWAP2 SWAP1 POP JUMP JUMPDEST PUSH0 PUSH1 0x20 DUP3 ADD SWAP1 POP DUP2 DUP2 SUB PUSH0 DUP4 ADD MSTORE PUSH2 0x12FF DUP2 PUSH2 0x12C6 JUMP JUMPDEST SWAP1 POP SWAP2 SWAP1 POP JUMP JUMPDEST PUSH0 DUP2 SWAP1 POP SWAP2 SWAP1 POP JUMP JUMPDEST PUSH2 0x1320 PUSH2 0x131B DUP3 PUSH2 0xD90 JUMP JUMPDEST PUSH2 0x1306 JUMP JUMPDEST DUP3 MSTORE POP POP JUMP JUMPDEST PUSH0 DUP2 PUSH1 0x60 SHL SWAP1 POP SWAP2 SWAP1 POP JUMP JUMPDEST PUSH0 PUSH2 0x133C DUP3 PUSH2 0x1326 JUMP JUMPDEST SWAP1 POP SWAP2 SWAP1 POP JUMP JUMPDEST PUSH0 PUSH2 0x134D DUP3 PUSH2 0x1332 JUMP JUMPDEST SWAP1 POP SWAP2 SWAP1 POP JUMP JUMPDEST PUSH2 0x1365 PUSH2 0x1360 DUP3 PUSH2 0xD4F JUMP JUMPDEST PUSH2 0x1343 JUMP JUMPDEST DUP3 MSTORE POP POP JUMP JUMPDEST PUSH0 PUSH2 0x1376 DUP3 DUP8 PUSH2 0x130F JUMP JUMPDEST PUSH1 0x20 DUP3 ADD SWAP2 POP PUSH2 0x1386 DUP3 DUP7 PUSH2 0x1354 JUMP JUMPDEST PUSH1 0x14 DUP3 ADD SWAP2 POP PUSH2 0x1396 DUP3 DUP6 PUSH2 0x130F JUMP JUMPDEST PUSH1 0x20 DUP3 ADD SWAP2 POP PUSH2 0x13A6 DUP3 DUP5 PUSH2 0x130F JUMP JUMPDEST PUSH1 0x20 DUP3 ADD SWAP2 POP DUP2 SWAP1 POP SWAP6 SWAP5 POP POP POP POP POP JUMP JUMPDEST PUSH32 0x4272696467653A20696E76616C69642072656C61796572207369676E61747572 PUSH0 DUP3 ADD MSTORE PUSH32 0x6500000000000000000000000000000000000000000000000000000000000000 PUSH1 0x20 DUP3 ADD MSTORE POP JUMP JUMPDEST PUSH0 PUSH2 0x1412 PUSH1 0x21 DUP4 PUSH2 0x100A JUMP JUMPDEST SWAP2 POP PUSH2 0x141D DUP3 PUSH2 0x13B8 JUMP JUMPDEST PUSH1 0x40 DUP3 ADD SWAP1 POP SWAP2 SWAP1 POP JUMP JUMPDEST PUSH0 PUSH1 0x20 DUP3 ADD SWAP1 POP DUP2 DUP2 SUB PUSH0 DUP4 ADD MSTORE PUSH2 0x143F DUP2 PUSH2 0x1406 JUMP JUMPDEST SWAP1 POP SWAP2 SWAP1 POP JUMP JUMPDEST PUSH32 0x4272696467653A207472616E73666572206661696C6564000000000000000000 PUSH0 DUP3 ADD MSTORE POP JUMP JUMPDEST PUSH0 PUSH2 0x147A PUSH1 0x17 DUP4 PUSH2 0x100A JUMP JUMPDEST SWAP2 POP PUSH2 0x1485 DUP3 PUSH2 0x1446 JUMP JUMPDEST PUSH1 0x20 DUP3 ADD SWAP1 POP SWAP2 SWAP1 POP JUMP JUMPDEST PUSH0 PUSH1 0x20 DUP3 ADD SWAP1 POP DUP2 DUP2 SUB PUSH0 DUP4 ADD MSTORE PUSH2 0x14A7 DUP2 PUSH2 0x146E JUMP JUMPDEST SWAP1 POP SWAP2 SWAP1 POP JUMP JUMPDEST PUSH0 DUP2 SWAP1 POP SWAP2 SWAP1 POP JUMP JUMPDEST PUSH2 0x14C0 DUP2 PUSH2 0x14AE JUMP JUMPDEST DUP3 MSTORE POP POP JUMP JUMPDEST PUSH0 PUSH1 0x20 DUP3 ADD SWAP1 POP PUSH2 0x14D9 PUSH0 DUP4 ADD DUP5 PUSH2 0x14B7 JUMP JUMPDEST SWAP3 SWAP2 POP POP JUMP JUMPDEST PUSH0 PUSH1 0xFF DUP3 AND SWAP1 POP SWAP2 SWAP1 POP JUMP JUMPDEST PUSH2 0x14F4 DUP2 PUSH2 0x14DF JUMP JUMPDEST DUP3 MSTORE POP POP JUMP JUMPDEST PUSH0 PUSH1 0x80 DUP3 ADD SWAP1 POP PUSH2 0x150D PUSH0 DUP4 ADD DUP8 PUSH2 0x14B7 JUMP JUMPDEST PUSH2 0x151A PUSH1 0x20 DUP4 ADD DUP7 PUSH2 0x14EB JUMP JUMPDEST PUSH2 0x1527 PUSH1 0x40 DUP4 ADD DUP6 PUSH2 0x14B7 JUMP JUMPDEST PUSH2 0x1534 PUSH1 0x60 DUP4 ADD DUP5 PUSH2 0x14B7 JUMP JUMPDEST SWAP6 SWAP5 POP POP POP POP POP JUMP INVALID LOG2 PUSH5 0x6970667358 0x22 SLT KECCAK256 DUP16 0xE9 MOD 0x2A DUP4 0xD 0xCA ADD PUSH19 0x4558CA18F143E110D8BD380DDBAE3AEC831FA8 0x4C 0xDE DUP13 PUSH32 0x64736F6C634300081C0033000000000000000000000000000000000000000000 "},"methodIdentifiers":{"bridge(uint256,address)":"9394d2e8","destChainId()":"c4af1c0b","mode()":"295a5212","outboundNonce()":"fd10ebe5","processedNonces(uint256)":"91dae519","relayer()":"8406c079","release(address,uint256,uint256,bytes)":"faa916d3","token()":"fc0c546a"}}}}}