{
  "_format": "hh3-artifact-1",
  "contractName": "Bridge",
  "sourceName": "contracts/Bridge.sol",
  "abi": [
    {
      "inputs": [
        {
          "internalType": "address",
          "name": "_token",
          "type": "address"
        },
        {
          "internalType": "address",
          "name": "_relayer",
          "type": "address"
        },
        {
          "internalType": "uint256",
          "name": "_destChainId",
          "type": "uint256"
        },
        {
          "internalType": "enum Bridge.Mode",
          "name": "_mode",
          "type": "uint8"
        }
      ],
      "stateMutability": "nonpayable",
      "type": "constructor"
    },
    {
      "inputs": [],
      "name": "ECDSAInvalidSignature",
      "type": "error"
    },
    {
      "inputs": [
        {
          "internalType": "uint256",
          "name": "length",
          "type": "uint256"
        }
      ],
      "name": "ECDSAInvalidSignatureLength",
      "type": "error"
    },
    {
      "inputs": [
        {
          "internalType": "bytes32",
          "name": "s",
          "type": "bytes32"
        }
      ],
      "name": "ECDSAInvalidSignatureS",
      "type": "error"
    },
    {
      "anonymous": false,
      "inputs": [
        {
          "indexed": true,
          "internalType": "address",
          "name": "sender",
          "type": "address"
        },
        {
          "indexed": true,
          "internalType": "address",
          "name": "recipient",
          "type": "address"
        },
        {
          "indexed": false,
          "internalType": "uint256",
          "name": "amount",
          "type": "uint256"
        },
        {
          "indexed": false,
          "internalType": "uint256",
          "name": "nonce",
          "type": "uint256"
        }
      ],
      "name": "BridgeInitiated",
      "type": "event"
    },
    {
      "anonymous": false,
      "inputs": [
        {
          "indexed": true,
          "internalType": "address",
          "name": "recipient",
          "type": "address"
        },
        {
          "indexed": false,
          "internalType": "uint256",
          "name": "amount",
          "type": "uint256"
        },
        {
          "indexed": false,
          "internalType": "uint256",
          "name": "nonce",
          "type": "uint256"
        }
      ],
      "name": "BridgeReleased",
      "type": "event"
    },
    {
      "inputs": [
        {
          "internalType": "uint256",
          "name": "amount",
          "type": "uint256"
        },
        {
          "internalType": "address",
          "name": "recipient",
          "type": "address"
        }
      ],
      "name": "bridge",
      "outputs": [],
      "stateMutability": "nonpayable",
      "type": "function"
    },
    {
      "inputs": [],
      "name": "destChainId",
      "outputs": [
        {
          "internalType": "uint256",
          "name": "",
          "type": "uint256"
        }
      ],
      "stateMutability": "view",
      "type": "function"
    },
    {
      "inputs": [],
      "name": "mode",
      "outputs": [
        {
          "internalType": "enum Bridge.Mode",
          "name": "",
          "type": "uint8"
        }
      ],
      "stateMutability": "view",
      "type": "function"
    },
    {
      "inputs": [],
      "name": "outboundNonce",
      "outputs": [
        {
          "internalType": "uint256",
          "name": "",
          "type": "uint256"
        }
      ],
      "stateMutability": "view",
      "type": "function"
    },
    {
      "inputs": [
        {
          "internalType": "uint256",
          "name": "",
          "type": "uint256"
        }
      ],
      "name": "processedNonces",
      "outputs": [
        {
          "internalType": "bool",
          "name": "",
          "type": "bool"
        }
      ],
      "stateMutability": "view",
      "type": "function"
    },
    {
      "inputs": [],
      "name": "relayer",
      "outputs": [
        {
          "internalType": "address",
          "name": "",
          "type": "address"
        }
      ],
      "stateMutability": "view",
      "type": "function"
    },
    {
      "inputs": [
        {
          "internalType": "address",
          "name": "recipient",
          "type": "address"
        },
        {
          "internalType": "uint256",
          "name": "amount",
          "type": "uint256"
        },
        {
          "internalType": "uint256",
          "name": "nonce",
          "type": "uint256"
        },
        {
          "internalType": "bytes",
          "name": "sig",
          "type": "bytes"
        }
      ],
      "name": "release",
      "outputs": [],
      "stateMutability": "nonpayable",
      "type": "function"
    },
    {
      "inputs": [],
      "name": "token",
      "outputs": [
        {
          "internalType": "contract BridgeToken",
          "name": "",
          "type": "address"
        }
      ],
      "stateMutability": "view",
      "type": "function"
    }
  ],
  "bytecode": "0x610100604052348015610010575f5ffd5b506040516117d33803806117d38339818101604052810190610032919061018b565b8373ffffffffffffffffffffffffffffffffffffffff1660808173ffffffffffffffffffffffffffffffffffffffff16815250508273ffffffffffffffffffffffffffffffffffffffff1660a08173ffffffffffffffffffffffffffffffffffffffff16815250508160c081815250508060018111156100b5576100b46101ef565b5b60e08160018111156100ca576100c96101ef565b5b815250505050505061021c565b5f5ffd5b5f73ffffffffffffffffffffffffffffffffffffffff82169050919050565b5f610104826100db565b9050919050565b610114816100fa565b811461011e575f5ffd5b50565b5f8151905061012f8161010b565b92915050565b5f819050919050565b61014781610135565b8114610151575f5ffd5b50565b5f815190506101628161013e565b92915050565b60028110610174575f5ffd5b50565b5f8151905061018581610168565b92915050565b5f5f5f5f608085870312156101a3576101a26100d7565b5b5f6101b087828801610121565b94505060206101c187828801610121565b93505060406101d287828801610154565b92505060606101e387828801610177565b91505092959194509250565b7f4e487b71000000000000000000000000000000000000000000000000000000005f52602160045260245ffd5b60805160a05160c05160e0516115536102805f395f818161018a015281816102ca015261076801525f6104d801525f81816101ae015261069f01525f8181610302015281816103e3015281816107a00152818161087f015261096201526115535ff3fe608060405234801561000f575f5ffd5b5060043610610086575f3560e01c8063c4af1c0b11610059578063c4af1c0b14610112578063faa916d314610130578063fc0c546a1461014c578063fd10ebe51461016a57610086565b8063295a52121461008a5780638406c079146100a857806391dae519146100c65780639394d2e8146100f6575b5f5ffd5b610092610188565b60405161009f9190610cf7565b60405180910390f35b6100b06101ac565b6040516100bd9190610d4f565b60405180910390f35b6100e060048036038101906100db9190610da3565b6101d0565b6040516100ed9190610de8565b60405180910390f35b610110600480360381019061010b9190610e2b565b6101ed565b005b61011a6104d6565b6040516101279190610e78565b60405180910390f35b61014a60048036038101906101459190610ef2565b6104fa565b005b610154610960565b6040516101619190610fd1565b60405180910390f35b610172610984565b60405161017f9190610e78565b60405180910390f35b7f000000000000000000000000000000000000000000000000000000000000000081565b7f000000000000000000000000000000000000000000000000000000000000000081565b6001602052805f5260405f205f915054906101000a900460ff1681565b5f821161022f576040517f08c379a000000000000000000000000000000000000000000000000000000000815260040161022690611044565b60405180910390fd5b5f73ffffffffffffffffffffffffffffffffffffffff168173ffffffffffffffffffffffffffffffffffffffff160361029d576040517f08c379a0000000000000000000000000000000000000000000000000000000008152600401610294906110ac565b60405180910390fd5b5f5f5f8154809291906102af906110f7565b9190505590505f60018111156102c8576102c7610c84565b5b7f000000000000000000000000000000000000000000000000000000000000000060018111156102fb576102fa610c84565b5b036103e1577f000000000000000000000000000000000000000000000000000000000000000073ffffffffffffffffffffffffffffffffffffffff166323b872dd3330866040518463ffffffff1660e01b815260040161035d9392919061113e565b6020604051808303815f875af1158015610379573d5f5f3e3d5ffd5b505050506040513d601f19601f8201168201806040525081019061039d919061119d565b6103dc576040517f08c379a00000000000000000000000000000000000000000000000000000000081526004016103d390611212565b60405180910390fd5b61046a565b7f000000000000000000000000000000000000000000000000000000000000000073ffffffffffffffffffffffffffffffffffffffff16639dc29fac33856040518363ffffffff1660e01b815260040161043c929190611230565b5f604051808303815f87803b158015610453575f5ffd5b505af1158015610465573d5f5f3e3d5ffd5b505050505b8173ffffffffffffffffffffffffffffffffffffffff163373ffffffffffffffffffffffffffffffffffffffff167f6a21742b1943e14eb12e527b823f24fb8041781335a6397b6c22a683722e4c5e85846040516104c9929190611257565b60405180910390a3505050565b7f000000000000000000000000000000000000000000000000000000000000000081565b60015f8481526020019081526020015f205f9054906101000a900460ff1615610558576040517f08c379a000000000000000000000000000000000000000000000000000000000815260040161054f906112c8565b60405180910390fd5b5f73ffffffffffffffffffffffffffffffffffffffff168573ffffffffffffffffffffffffffffffffffffffff16036105c6576040517f08c379a00000000000000000000000000000000000000000000000000000000081526004016105bd906110ac565b60405180910390fd5b5f8411610608576040517f08c379a00000000000000000000000000000000000000000000000000000000081526004016105ff90611044565b60405180910390fd5b5f46868686604051602001610620949392919061134b565b6040516020818303038152906040528051906020012090505f61064282610989565b90505f61069b85858080601f0160208091040260200160405190810160405280939291908181526020018383808284375f81840152601f19601f82011690508083019250505050505050836109bc90919063ffffffff16565b90507f000000000000000000000000000000000000000000000000000000000000000073ffffffffffffffffffffffffffffffffffffffff168173ffffffffffffffffffffffffffffffffffffffff161461072b576040517f08c379a000000000000000000000000000000000000000000000000000000000815260040161072290611408565b60405180910390fd5b6001805f8881526020019081526020015f205f6101000a81548160ff0219169083151502179055505f600181111561076657610765610c84565b5b7f0000000000000000000000000000000000000000000000000000000000000000600181111561079957610798610c84565b5b0361087d577f000000000000000000000000000000000000000000000000000000000000000073ffffffffffffffffffffffffffffffffffffffff1663a9059cbb89896040518363ffffffff1660e01b81526004016107f9929190611230565b6020604051808303815f875af1158015610815573d5f5f3e3d5ffd5b505050506040513d601f19601f82011682018060405250810190610839919061119d565b610878576040517f08c379a000000000000000000000000000000000000000000000000000000000815260040161086f90611470565b60405180910390fd5b610906565b7f000000000000000000000000000000000000000000000000000000000000000073ffffffffffffffffffffffffffffffffffffffff166340c10f1989896040518363ffffffff1660e01b81526004016108d8929190611230565b5f604051808303815f87803b1580156108ef575f5ffd5b505af1158015610901573d5f5f3e3d5ffd5b505050505b8773ffffffffffffffffffffffffffffffffffffffff167f81d0b274a0694f8c5fae0a8472ac07928f4b6456b6e26dd3810132a354343840888860405161094e929190611257565b60405180910390a25050505050505050565b7f000000000000000000000000000000000000000000000000000000000000000081565b5f5481565b5f7f19457468657265756d205369676e6564204d6573736167653a0a3332000000005f5281601c52603c5f209050919050565b5f5f5f5f6109ca86866109e6565b9250925092506109da8282610a3b565b82935050505092915050565b5f5f5f6041845103610a26575f5f5f602087015192506040870151915060608701515f1a9050610a1888828585610b9d565b955095509550505050610a34565b5f600285515f1b9250925092505b9250925092565b5f6003811115610a4e57610a4d610c84565b5b826003811115610a6157610a60610c84565b5b0315610b995760016003811115610a7b57610a7a610c84565b5b826003811115610a8e57610a8d610c84565b5b03610ac5576040517ff645eedf00000000000000000000000000000000000000000000000000000000815260040160405180910390fd5b60026003811115610ad957610ad8610c84565b5b826003811115610aec57610aeb610c84565b5b03610b3057805f1c6040517ffce698f7000000000000000000000000000000000000000000000000000000008152600401610b279190610e78565b60405180910390fd5b600380811115610b4357610b42610c84565b5b826003811115610b5657610b55610c84565b5b03610b9857806040517fd78bce0c000000000000000000000000000000000000000000000000000000008152600401610b8f91906114a6565b60405180910390fd5b5b5050565b5f5f5f7f7fffffffffffffffffffffffffffffff5d576e7357a4501ddfe92f46681b20a0845f1c1115610bd9575f600385925092509250610c7a565b5f6001888888886040515f8152602001604052604051610bfc94939291906114da565b6020604051602081039080840390855afa158015610c1c573d5f5f3e3d5ffd5b5050506020604051035190505f73ffffffffffffffffffffffffffffffffffffffff168173ffffffffffffffffffffffffffffffffffffffff1603610c6d575f60015f5f1b93509350935050610c7a565b805f5f5f1b935093509350505b9450945094915050565b7f4e487b71000000000000000000000000000000000000000000000000000000005f52602160045260245ffd5b60028110610cc257610cc1610c84565b5b50565b5f819050610cd282610cb1565b919050565b5f610ce182610cc5565b9050919050565b610cf181610cd7565b82525050565b5f602082019050610d0a5f830184610ce8565b92915050565b5f73ffffffffffffffffffffffffffffffffffffffff82169050919050565b5f610d3982610d10565b9050919050565b610d4981610d2f565b82525050565b5f602082019050610d625f830184610d40565b92915050565b5f5ffd5b5f5ffd5b5f819050919050565b610d8281610d70565b8114610d8c575f5ffd5b50565b5f81359050610d9d81610d79565b92915050565b5f60208284031215610db857610db7610d68565b5b5f610dc584828501610d8f565b91505092915050565b5f8115159050919050565b610de281610dce565b82525050565b5f602082019050610dfb5f830184610dd9565b92915050565b610e0a81610d2f565b8114610e14575f5ffd5b50565b5f81359050610e2581610e01565b92915050565b5f5f60408385031215610e4157610e40610d68565b5b5f610e4e85828601610d8f565b9250506020610e5f85828601610e17565b9150509250929050565b610e7281610d70565b82525050565b5f602082019050610e8b5f830184610e69565b92915050565b5f5ffd5b5f5ffd5b5f5ffd5b5f5f83601f840112610eb257610eb1610e91565b5b8235905067ffffffffffffffff811115610ecf57610ece610e95565b5b602083019150836001820283011115610eeb57610eea610e99565b5b9250929050565b5f5f5f5f5f60808688031215610f0b57610f0a610d68565b5b5f610f1888828901610e17565b9550506020610f2988828901610d8f565b9450506040610f3a88828901610d8f565b935050606086013567ffffffffffffffff811115610f5b57610f5a610d6c565b5b610f6788828901610e9d565b92509250509295509295909350565b5f819050919050565b5f610f99610f94610f8f84610d10565b610f76565b610d10565b9050919050565b5f610faa82610f7f565b9050919050565b5f610fbb82610fa0565b9050919050565b610fcb81610fb1565b82525050565b5f602082019050610fe45f830184610fc2565b92915050565b5f82825260208201905092915050565b7f4272696467653a20616d6f756e74206d757374206265203e20300000000000005f82015250565b5f61102e601a83610fea565b915061103982610ffa565b602082019050919050565b5f6020820190508181035f83015261105b81611022565b9050919050565b7f4272696467653a20696e76616c696420726563697069656e74000000000000005f82015250565b5f611096601983610fea565b91506110a182611062565b602082019050919050565b5f6020820190508181035f8301526110c38161108a565b9050919050565b7f4e487b71000000000000000000000000000000000000000000000000000000005f52601160045260245ffd5b5f61110182610d70565b91507fffffffffffffffffffffffffffffffffffffffffffffffffffffffffffffffff8203611133576111326110ca565b5b600182019050919050565b5f6060820190506111515f830186610d40565b61115e6020830185610d40565b61116b6040830184610e69565b949350505050565b61117c81610dce565b8114611186575f5ffd5b50565b5f8151905061119781611173565b92915050565b5f602082840312156111b2576111b1610d68565b5b5f6111bf84828501611189565b91505092915050565b7f4272696467653a207472616e7366657246726f6d206661696c656400000000005f82015250565b5f6111fc601b83610fea565b9150611207826111c8565b602082019050919050565b5f6020820190508181035f830152611229816111f0565b9050919050565b5f6040820190506112435f830185610d40565b6112506020830184610e69565b9392505050565b5f60408201905061126a5f830185610e69565b6112776020830184610e69565b9392505050565b7f4272696467653a206e6f6e636520616c72656164792070726f636573736564005f82015250565b5f6112b2601f83610fea565b91506112bd8261127e565b602082019050919050565b5f6020820190508181035f8301526112df816112a6565b9050919050565b5f819050919050565b6113006112fb82610d70565b6112e6565b82525050565b5f8160601b9050919050565b5f61131c82611306565b9050919050565b5f61132d82611312565b9050919050565b61134561134082610d2f565b611323565b82525050565b5f61135682876112ef565b6020820191506113668286611334565b60148201915061137682856112ef565b60208201915061138682846112ef565b60208201915081905095945050505050565b7f4272696467653a20696e76616c69642072656c61796572207369676e617475725f8201527f6500000000000000000000000000000000000000000000000000000000000000602082015250565b5f6113f2602183610fea565b91506113fd82611398565b604082019050919050565b5f6020820190508181035f83015261141f816113e6565b9050919050565b7f4272696467653a207472616e73666572206661696c65640000000000000000005f82015250565b5f61145a601783610fea565b915061146582611426565b602082019050919050565b5f6020820190508181035f8301526114878161144e565b9050919050565b5f819050919050565b6114a08161148e565b82525050565b5f6020820190506114b95f830184611497565b92915050565b5f60ff82169050919050565b6114d4816114bf565b82525050565b5f6080820190506114ed5f830187611497565b6114fa60208301866114cb565b6115076040830185611497565b6115146060830184611497565b9594505050505056fea2646970667358221220503d6d1a9e5edbb1b3adcf1c2be93767261c72916639874f5aa5187f2edacf6864736f6c634300081c0033",
  "linkReferences": {},
  "deployedLinkReferences": {},
  "immutableReferences": {
    "7507": [
      {
        "length": 32,
        "start": 770
      },
      {
        "length": 32,
        "start": 995
      },
      {
        "length": 32,
        "start": 1952
      },
      {
        "length": 32,
        "start": 2175
      },
      {
        "length": 32,
        "start": 2402
      }
    ],
    "7509": [
      {
        "length": 32,
        "start": 430
      },
      {
        "length": 32,
        "start": 1695
      }
    ],
    "7511": [
      {
        "length": 32,
        "start": 1240
      }
    ],
    "7514": [
      {
        "length": 32,
        "start": 394
      },
      {
        "length": 32,
        "start": 714
      },
      {
        "length": 32,
        "start": 1896
      }
    ]
  },
  "inputSourceName": "project/contracts/Bridge.sol",
  "buildInfoId": "solc-0_8_28-612fb04b4baade6fadc39fe9ba91f0c88f89abe3"
}